{
  "contractName": "NetShop",
  "abi": [
    {
      "inputs": [],
      "stateMutability": "nonpayable",
      "type": "constructor"
    },
    {
      "inputs": [],
      "name": "gameOwner",
      "outputs": [
        {
          "internalType": "address",
          "name": "",
          "type": "address"
        }
      ],
      "stateMutability": "view",
      "type": "function",
      "constant": true
    },
    {
      "inputs": [
        {
          "internalType": "uint256",
          "name": "",
          "type": "uint256"
        }
      ],
      "name": "nets",
      "outputs": [
        {
          "internalType": "uint256",
          "name": "id",
          "type": "uint256"
        },
        {
          "internalType": "string",
          "name": "name",
          "type": "string"
        },
        {
          "internalType": "string",
          "name": "imgurl",
          "type": "string"
        },
        {
          "internalType": "address",
          "name": "owner",
          "type": "address"
        },
        {
          "internalType": "bool",
          "name": "onsale",
          "type": "bool"
        },
        {
          "internalType": "uint256",
          "name": "startprice",
          "type": "uint256"
        },
        {
          "internalType": "address",
          "name": "bidderhistory",
          "type": "address"
        },
        {
          "internalType": "uint256",
          "name": "bidpricehistory",
          "type": "uint256"
        },
        {
          "internalType": "uint256",
          "name": "endtime",
          "type": "uint256"
        }
      ],
      "stateMutability": "view",
      "type": "function",
      "constant": true
    },
    {
      "inputs": [
        {
          "internalType": "uint256",
          "name": "",
          "type": "uint256"
        }
      ],
      "name": "result",
      "outputs": [
        {
          "internalType": "uint256",
          "name": "id",
          "type": "uint256"
        },
        {
          "internalType": "string",
          "name": "name",
          "type": "string"
        },
        {
          "internalType": "string",
          "name": "imgurl",
          "type": "string"
        },
        {
          "internalType": "address",
          "name": "owner",
          "type": "address"
        },
        {
          "internalType": "bool",
          "name": "onsale",
          "type": "bool"
        },
        {
          "internalType": "uint256",
          "name": "startprice",
          "type": "uint256"
        },
        {
          "internalType": "address",
          "name": "bidderhistory",
          "type": "address"
        },
        {
          "internalType": "uint256",
          "name": "bidpricehistory",
          "type": "uint256"
        },
        {
          "internalType": "uint256",
          "name": "endtime",
          "type": "uint256"
        }
      ],
      "stateMutability": "view",
      "type": "function",
      "constant": true
    },
    {
      "inputs": [
        {
          "internalType": "uint256",
          "name": "",
          "type": "uint256"
        }
      ],
      "name": "temp",
      "outputs": [
        {
          "internalType": "address",
          "name": "owner",
          "type": "address"
        },
        {
          "internalType": "uint256",
          "name": "getPrice",
          "type": "uint256"
        },
        {
          "internalType": "uint256",
          "name": "gettime",
          "type": "uint256"
        }
      ],
      "stateMutability": "view",
      "type": "function",
      "constant": true
    },
    {
      "inputs": [
        {
          "internalType": "string",
          "name": "_name",
          "type": "string"
        },
        {
          "internalType": "string",
          "name": "_imgurl",
          "type": "string"
        }
      ],
      "name": "createNewCharacter",
      "outputs": [],
      "stateMutability": "payable",
      "type": "function",
      "payable": true
    },
    {
      "inputs": [],
      "name": "getAllCharacter",
      "outputs": [
        {
          "components": [
            {
              "internalType": "uint256",
              "name": "id",
              "type": "uint256"
            },
            {
              "internalType": "string",
              "name": "name",
              "type": "string"
            },
            {
              "internalType": "string",
              "name": "imgurl",
              "type": "string"
            },
            {
              "internalType": "address",
              "name": "owner",
              "type": "address"
            },
            {
              "internalType": "bool",
              "name": "onsale",
              "type": "bool"
            },
            {
              "internalType": "uint256",
              "name": "startprice",
              "type": "uint256"
            },
            {
              "internalType": "address",
              "name": "bidderhistory",
              "type": "address"
            },
            {
              "internalType": "uint256",
              "name": "bidpricehistory",
              "type": "uint256"
            },
            {
              "internalType": "uint256",
              "name": "endtime",
              "type": "uint256"
            }
          ],
          "internalType": "struct NetShop.Net[]",
          "name": "",
          "type": "tuple[]"
        }
      ],
      "stateMutability": "nonpayable",
      "type": "function"
    },
    {
      "inputs": [
        {
          "internalType": "address",
          "name": "_sender",
          "type": "address"
        }
      ],
      "name": "getCharacter",
      "outputs": [
        {
          "components": [
            {
              "internalType": "uint256",
              "name": "id",
              "type": "uint256"
            },
            {
              "internalType": "string",
              "name": "name",
              "type": "string"
            },
            {
              "internalType": "string",
              "name": "imgurl",
              "type": "string"
            },
            {
              "internalType": "address",
              "name": "owner",
              "type": "address"
            },
            {
              "internalType": "bool",
              "name": "onsale",
              "type": "bool"
            },
            {
              "internalType": "uint256",
              "name": "startprice",
              "type": "uint256"
            },
            {
              "internalType": "address",
              "name": "bidderhistory",
              "type": "address"
            },
            {
              "internalType": "uint256",
              "name": "bidpricehistory",
              "type": "uint256"
            },
            {
              "internalType": "uint256",
              "name": "endtime",
              "type": "uint256"
            }
          ],
          "internalType": "struct NetShop.Net[]",
          "name": "",
          "type": "tuple[]"
        }
      ],
      "stateMutability": "nonpayable",
      "type": "function"
    },
    {
      "inputs": [],
      "name": "getAuction",
      "outputs": [
        {
          "components": [
            {
              "internalType": "uint256",
              "name": "id",
              "type": "uint256"
            },
            {
              "internalType": "string",
              "name": "name",
              "type": "string"
            },
            {
              "internalType": "string",
              "name": "imgurl",
              "type": "string"
            },
            {
              "internalType": "address",
              "name": "owner",
              "type": "address"
            },
            {
              "internalType": "bool",
              "name": "onsale",
              "type": "bool"
            },
            {
              "internalType": "uint256",
              "name": "startprice",
              "type": "uint256"
            },
            {
              "internalType": "address",
              "name": "bidderhistory",
              "type": "address"
            },
            {
              "internalType": "uint256",
              "name": "bidpricehistory",
              "type": "uint256"
            },
            {
              "internalType": "uint256",
              "name": "endtime",
              "type": "uint256"
            }
          ],
          "internalType": "struct NetShop.Net[]",
          "name": "",
          "type": "tuple[]"
        }
      ],
      "stateMutability": "nonpayable",
      "type": "function"
    },
    {
      "inputs": [],
      "name": "getMyAuction",
      "outputs": [
        {
          "components": [
            {
              "internalType": "uint256",
              "name": "id",
              "type": "uint256"
            },
            {
              "internalType": "string",
              "name": "name",
              "type": "string"
            },
            {
              "internalType": "string",
              "name": "imgurl",
              "type": "string"
            },
            {
              "internalType": "address",
              "name": "owner",
              "type": "address"
            },
            {
              "internalType": "bool",
              "name": "onsale",
              "type": "bool"
            },
            {
              "internalType": "uint256",
              "name": "startprice",
              "type": "uint256"
            },
            {
              "internalType": "address",
              "name": "bidderhistory",
              "type": "address"
            },
            {
              "internalType": "uint256",
              "name": "bidpricehistory",
              "type": "uint256"
            },
            {
              "internalType": "uint256",
              "name": "endtime",
              "type": "uint256"
            }
          ],
          "internalType": "struct NetShop.Net[]",
          "name": "",
          "type": "tuple[]"
        }
      ],
      "stateMutability": "nonpayable",
      "type": "function"
    },
    {
      "inputs": [
        {
          "internalType": "uint256",
          "name": "_id",
          "type": "uint256"
        },
        {
          "internalType": "uint256",
          "name": "_sec",
          "type": "uint256"
        },
        {
          "internalType": "uint256",
          "name": "_startprice",
          "type": "uint256"
        }
      ],
      "name": "createNewAuction",
      "outputs": [],
      "stateMutability": "payable",
      "type": "function",
      "payable": true
    },
    {
      "inputs": [
        {
          "internalType": "uint256",
          "name": "_id",
          "type": "uint256"
        }
      ],
      "name": "bid",
      "outputs": [],
      "stateMutability": "payable",
      "type": "function",
      "payable": true
    },
    {
      "inputs": [
        {
          "internalType": "uint256",
          "name": "_id",
          "type": "uint256"
        }
      ],
      "name": "getOwner_history",
      "outputs": [
        {
          "components": [
            {
              "internalType": "address",
              "name": "owner",
              "type": "address"
            },
            {
              "internalType": "uint256",
              "name": "getPrice",
              "type": "uint256"
            },
            {
              "internalType": "uint256",
              "name": "gettime",
              "type": "uint256"
            }
          ],
          "internalType": "struct NetShop.Owner[]",
          "name": "",
          "type": "tuple[]"
        }
      ],
      "stateMutability": "view",
      "type": "function",
      "constant": true
    },
    {
      "inputs": [
        {
          "internalType": "uint256",
          "name": "_id",
          "type": "uint256"
        }
      ],
      "name": "change_Owner",
      "outputs": [],
      "stateMutability": "nonpayable",
      "type": "function"
    }
  ],
  "bytecode": "0x608060405234801561001057600080fd5b5033600360006101000a81548173ffffffffffffffffffffffffffffffffffffffff021916908373ffffffffffffffffffffffffffffffffffffffff1602179055506132f8806100616000396000f3fe6080604052600436106100c25760003560e01c80637327df251161007f578063c88d258d11610059578063c88d258d14610284578063ebd0c91c146102a0578063f3507502146102dd578063f6b12f2814610308576100c2565b80637327df25146101f3578063870ff1381461021e578063a778d7ba14610247576100c2565b806312ba0a41146100c757806333f81458146100e35780633c59405914610128578063454a2ab31461016d5780635930b25f146101895780636c3755ad146101b4575b600080fd5b6100e160048036038101906100dc91906129b3565b610333565b005b3480156100ef57600080fd5b5061010a60048036038101906101059190612a06565b610537565b60405161011f99989796959493929190612b37565b60405180910390f35b34801561013457600080fd5b5061014f600480360381019061014a9190612a06565b6106f2565b60405161016499989796959493929190612b37565b60405180910390f35b61018760048036038101906101829190612a06565b6108ad565b005b34801561019557600080fd5b5061019e610b17565b6040516101ab9190612dd7565b60405180910390f35b3480156101c057600080fd5b506101db60048036038101906101d69190612a06565b61102a565b6040516101ea93929190612df9565b60405180910390f35b3480156101ff57600080fd5b50610208611084565b6040516102159190612dd7565b60405180910390f35b34801561022a57600080fd5b5061024560048036038101906102409190612a06565b61151b565b005b34801561025357600080fd5b5061026e60048036038101906102699190612a06565b6118eb565b60405161027b9190612f21565b60405180910390f35b61029e60048036038101906102999190613078565b6119c7565b005b3480156102ac57600080fd5b506102c760048036038101906102c2919061311c565b611c87565b6040516102d49190612dd7565b60405180910390f35b3480156102e957600080fd5b506102f261215a565b6040516102ff9190612dd7565b60405180910390f35b34801561031457600080fd5b5061031d6125b1565b60405161032a9190613149565b60405180910390f35b67016345785d8a0000341461034757600080fd5b6000838154811061035b5761035a613164565b5b906000526020600020906008020160030160009054906101000a900473ffffffffffffffffffffffffffffffffffffffff1673ffffffffffffffffffffffffffffffffffffffff163373ffffffffffffffffffffffffffffffffffffffff16146103c457600080fd5b60001515600084815481106103dc576103db613164565b5b906000526020600020906008020160030160149054906101000a900460ff1615151461040757600080fd5b60016000848154811061041d5761041c613164565b5b906000526020600020906008020160030160146101000a81548160ff021916908315150217905550814261045191906131c2565b6000848154811061046557610464613164565b5b906000526020600020906008020160070181905550806000848154811061048f5761048e613164565b5b90600052602060002090600802016004018190555033600084815481106104b9576104b8613164565b5b906000526020600020906008020160050160006101000a81548173ffffffffffffffffffffffffffffffffffffffff021916908373ffffffffffffffffffffffffffffffffffffffff160217905550806000848154811061051d5761051c613164565b5b906000526020600020906008020160060181905550505050565b6000818154811061054757600080fd5b906000526020600020906008020160009150905080600001549080600101805461057090613247565b80601f016020809104026020016040519081016040528092919081815260200182805461059c90613247565b80156105e95780601f106105be576101008083540402835291602001916105e9565b820191906000526020600020905b8154815290600101906020018083116105cc57829003601f168201915b5050505050908060020180546105fe90613247565b80601f016020809104026020016040519081016040528092919081815260200182805461062a90613247565b80156106775780601f1061064c57610100808354040283529160200191610677565b820191906000526020600020905b81548152906001019060200180831161065a57829003601f168201915b5050505050908060030160009054906101000a900473ffffffffffffffffffffffffffffffffffffffff16908060030160149054906101000a900460ff16908060040154908060050160009054906101000a900473ffffffffffffffffffffffffffffffffffffffff16908060060154908060070154905089565b6001818154811061070257600080fd5b906000526020600020906008020160009150905080600001549080600101805461072b90613247565b80601f016020809104026020016040519081016040528092919081815260200182805461075790613247565b80156107a45780601f10610779576101008083540402835291602001916107a4565b820191906000526020600020905b81548152906001019060200180831161078757829003601f168201915b5050505050908060020180546107b990613247565b80601f01602080910402602001604051908101604052809291908181526020018280546107e590613247565b80156108325780601f1061080757610100808354040283529160200191610832565b820191906000526020600020905b81548152906001019060200180831161081557829003601f168201915b5050505050908060030160009054906101000a900473ffffffffffffffffffffffffffffffffffffffff16908060030160149054906101000a900460ff16908060040154908060050160009054906101000a900473ffffffffffffffffffffffffffffffffffffffff16908060060154908060070154905089565b600081815481106108c1576108c0613164565b5b906000526020600020906008020160030160009054906101000a900473ffffffffffffffffffffffffffffffffffffffff1673ffffffffffffffffffffffffffffffffffffffff163373ffffffffffffffffffffffffffffffffffffffff16141561092b57600080fd5b6000818154811061093f5761093e613164565b5b90600052602060002090600802016007015442111561095d57600080fd5b60016000828154811061097357610972613164565b5b906000526020600020906008020160030160146101000a81548160ff02191690831515021790556109a357600080fd5b34600082815481106109b8576109b7613164565b5b90600052602060002090600802016006015411156109d557600080fd5b600081815481106109e9576109e8613164565b5b906000526020600020906008020160050160009054906101000a900473ffffffffffffffffffffffffffffffffffffffff1673ffffffffffffffffffffffffffffffffffffffff166108fc60008381548110610a4857610a47613164565b5b9060005260206000209060080201600601549081150290604051600060405180830381858888f19350505050158015610a85573d6000803e3d6000fd5b503360008281548110610a9b57610a9a613164565b5b906000526020600020906008020160050160006101000a81548173ffffffffffffffffffffffffffffffffffffffff021916908373ffffffffffffffffffffffffffffffffffffffff1602179055503460008281548110610aff57610afe613164565b5b90600052602060002090600802016006018190555050565b606060016000610b2791906125d7565b60005b600080549050811015610db8576001151560008281548110610b4f57610b4e613164565b5b906000526020600020906008020160030160149054906101000a900460ff161515148015610bed575060008181548110610b8c57610b8b613164565b5b906000526020600020906008020160030160009054906101000a900473ffffffffffffffffffffffffffffffffffffffff1673ffffffffffffffffffffffffffffffffffffffff163373ffffffffffffffffffffffffffffffffffffffff16145b15610da557600160008281548110610c0857610c07613164565b5b90600052602060002090600802019080600181540180825580915050600190039060005260206000209060080201600090919091909150600082015481600001556001820181600101908054610c5d90613247565b610c689291906125fb565b506002820181600201908054610c7d90613247565b610c889291906125fb565b506003820160009054906101000a900473ffffffffffffffffffffffffffffffffffffffff168160030160006101000a81548173ffffffffffffffffffffffffffffffffffffffff021916908373ffffffffffffffffffffffffffffffffffffffff1602179055506003820160149054906101000a900460ff168160030160146101000a81548160ff021916908315150217905550600482015481600401556005820160009054906101000a900473ffffffffffffffffffffffffffffffffffffffff168160050160006101000a81548173ffffffffffffffffffffffffffffffffffffffff021916908373ffffffffffffffffffffffffffffffffffffffff160217905550600682015481600601556007820154816007015550505b8080610db090613279565b915050610b2a565b506001805480602002602001604051908101604052809291908181526020016000905b8282101561102157838290600052602060002090600802016040518061012001604052908160008201548152602001600182018054610e1990613247565b80601f0160208091040260200160405190810160405280929190818152602001828054610e4590613247565b8015610e925780601f10610e6757610100808354040283529160200191610e92565b820191906000526020600020905b815481529060010190602001808311610e7557829003601f168201915b50505050508152602001600282018054610eab90613247565b80601f0160208091040260200160405190810160405280929190818152602001828054610ed790613247565b8015610f245780601f10610ef957610100808354040283529160200191610f24565b820191906000526020600020905b815481529060010190602001808311610f0757829003601f168201915b505050505081526020016003820160009054906101000a900473ffffffffffffffffffffffffffffffffffffffff1673ffffffffffffffffffffffffffffffffffffffff1673ffffffffffffffffffffffffffffffffffffffff1681526020016003820160149054906101000a900460ff16151515158152602001600482015481526020016005820160009054906101000a900473ffffffffffffffffffffffffffffffffffffffff1673ffffffffffffffffffffffffffffffffffffffff1673ffffffffffffffffffffffffffffffffffffffff1681526020016006820154815260200160078201548152505081526020019060010190610ddb565b50505050905090565b6002818154811061103a57600080fd5b90600052602060002090600302016000915090508060000160009054906101000a900473ffffffffffffffffffffffffffffffffffffffff16908060010154908060020154905083565b60606001600061109491906125d7565b60005b6000805490508110156112a95760011515600082815481106110bc576110bb613164565b5b906000526020600020906008020160030160149054906101000a900460ff1615151415611296576001600082815481106110f9576110f8613164565b5b9060005260206000209060080201908060018154018082558091505060019003906000526020600020906008020160009091909190915060008201548160000155600182018160010190805461114e90613247565b6111599291906125fb565b50600282018160020190805461116e90613247565b6111799291906125fb565b506003820160009054906101000a900473ffffffffffffffffffffffffffffffffffffffff168160030160006101000a81548173ffffffffffffffffffffffffffffffffffffffff021916908373ffffffffffffffffffffffffffffffffffffffff1602179055506003820160149054906101000a900460ff168160030160146101000a81548160ff021916908315150217905550600482015481600401556005820160009054906101000a900473ffffffffffffffffffffffffffffffffffffffff168160050160006101000a81548173ffffffffffffffffffffffffffffffffffffffff021916908373ffffffffffffffffffffffffffffffffffffffff160217905550600682015481600601556007820154816007015550505b80806112a190613279565b915050611097565b506001805480602002602001604051908101604052809291908181526020016000905b828210156115125783829060005260206000209060080201604051806101200160405290816000820154815260200160018201805461130a90613247565b80601f016020809104026020016040519081016040528092919081815260200182805461133690613247565b80156113835780601f1061135857610100808354040283529160200191611383565b820191906000526020600020905b81548152906001019060200180831161136657829003601f168201915b5050505050815260200160028201805461139c90613247565b80601f01602080910402602001604051908101604052809291908181526020018280546113c890613247565b80156114155780601f106113ea57610100808354040283529160200191611415565b820191906000526020600020905b8154815290600101906020018083116113f857829003601f168201915b505050505081526020016003820160009054906101000a900473ffffffffffffffffffffffffffffffffffffffff1673ffffffffffffffffffffffffffffffffffffffff1673ffffffffffffffffffffffffffffffffffffffff1681526020016003820160149054906101000a900460ff16151515158152602001600482015481526020016005820160009054906101000a900473ffffffffffffffffffffffffffffffffffffffff1673ffffffffffffffffffffffffffffffffffffffff1673ffffffffffffffffffffffffffffffffffffffff16815260200160068201548152602001600782015481525050815260200190600101906112cc565b50505050905090565b6000818154811061152f5761152e613164565b5b906000526020600020906008020160050160009054906101000a900473ffffffffffffffffffffffffffffffffffffffff1673ffffffffffffffffffffffffffffffffffffffff163373ffffffffffffffffffffffffffffffffffffffff161461159857600080fd5b600081815481106115ac576115ab613164565b5b9060005260206000209060080201600701544210156115ca57600080fd5b600081815481106115de576115dd613164565b5b906000526020600020906008020160030160009054906101000a900473ffffffffffffffffffffffffffffffffffffffff1673ffffffffffffffffffffffffffffffffffffffff166108fc6000838154811061163d5761163c613164565b5b9060005260206000209060080201600601549081150290604051600060405180830381858888f1935050505015801561167a573d6000803e3d6000fd5b506004600082815260200190815260200160002060405180606001604052803373ffffffffffffffffffffffffffffffffffffffff168152602001600084815481106116c9576116c8613164565b5b9060005260206000209060080201600601548152602001600084815481106116f4576116f3613164565b5b906000526020600020906008020160070154815250908060018154018082558091505060019003906000526020600020906003020160009091909190915060008201518160000160006101000a81548173ffffffffffffffffffffffffffffffffffffffff021916908373ffffffffffffffffffffffffffffffffffffffff1602179055506020820151816001015560408201518160020155505060008082815481106117a4576117a3613164565b5b906000526020600020906008020160030160146101000a81548160ff02191690831515021790555033600082815481106117e1576117e0613164565b5b906000526020600020906008020160030160006101000a81548173ffffffffffffffffffffffffffffffffffffffff021916908373ffffffffffffffffffffffffffffffffffffffff160217905550600080828154811061184557611844613164565b5b906000526020600020906008020160040181905550600080828154811061186f5761186e613164565b5b906000526020600020906008020160050160006101000a81548173ffffffffffffffffffffffffffffffffffffffff021916908373ffffffffffffffffffffffffffffffffffffffff16021790555060008082815481106118d3576118d2613164565b5b90600052602060002090600802016006018190555050565b606060046000838152602001908152602001600020805480602002602001604051908101604052809291908181526020016000905b828210156119bc57838290600052602060002090600302016040518060600160405290816000820160009054906101000a900473ffffffffffffffffffffffffffffffffffffffff1673ffffffffffffffffffffffffffffffffffffffff1673ffffffffffffffffffffffffffffffffffffffff1681526020016001820154815260200160028201548152505081526020019060010190611920565b505050509050919050565b67016345785d8a000034146119db57600080fd5b600080805490509050600260006119f29190612688565b600260405180606001604052803373ffffffffffffffffffffffffffffffffffffffff1681526020016000815260200142815250908060018154018082558091505060019003906000526020600020906003020160009091909190915060008201518160000160006101000a81548173ffffffffffffffffffffffffffffffffffffffff021916908373ffffffffffffffffffffffffffffffffffffffff16021790555060208201518160010155604082015181600201555050600260046000838152602001908152602001600020908054611acf9291906126ac565b50600080806040518061012001604052808581526020018781526020018681526020013373ffffffffffffffffffffffffffffffffffffffff168152602001600015158152602001600081526020018373ffffffffffffffffffffffffffffffffffffffff168152602001848152602001428152509080600181540180825580915050600190039060005260206000209060080201600090919091909150600082015181600001556020820151816001019080519060200190611b9392919061277f565b506040820151816002019080519060200190611bb092919061277f565b5060608201518160030160006101000a81548173ffffffffffffffffffffffffffffffffffffffff021916908373ffffffffffffffffffffffffffffffffffffffff16021790555060808201518160030160146101000a81548160ff02191690831515021790555060a0820151816004015560c08201518160050160006101000a81548173ffffffffffffffffffffffffffffffffffffffff021916908373ffffffffffffffffffffffffffffffffffffffff16021790555060e08201518160060155610100820151816007015550505050505050565b606060016000611c9791906125d7565b60005b600080549050811015611ee6578273ffffffffffffffffffffffffffffffffffffffff1660008281548110611cd257611cd1613164565b5b906000526020600020906008020160030160009054906101000a900473ffffffffffffffffffffffffffffffffffffffff1673ffffffffffffffffffffffffffffffffffffffff161415611ed357600160008281548110611d3657611d35613164565b5b90600052602060002090600802019080600181540180825580915050600190039060005260206000209060080201600090919091909150600082015481600001556001820181600101908054611d8b90613247565b611d969291906125fb565b506002820181600201908054611dab90613247565b611db69291906125fb565b506003820160009054906101000a900473ffffffffffffffffffffffffffffffffffffffff168160030160006101000a81548173ffffffffffffffffffffffffffffffffffffffff021916908373ffffffffffffffffffffffffffffffffffffffff1602179055506003820160149054906101000a900460ff168160030160146101000a81548160ff021916908315150217905550600482015481600401556005820160009054906101000a900473ffffffffffffffffffffffffffffffffffffffff168160050160006101000a81548173ffffffffffffffffffffffffffffffffffffffff021916908373ffffffffffffffffffffffffffffffffffffffff160217905550600682015481600601556007820154816007015550505b8080611ede90613279565b915050611c9a565b506001805480602002602001604051908101604052809291908181526020016000905b8282101561214f57838290600052602060002090600802016040518061012001604052908160008201548152602001600182018054611f4790613247565b80601f0160208091040260200160405190810160405280929190818152602001828054611f7390613247565b8015611fc05780601f10611f9557610100808354040283529160200191611fc0565b820191906000526020600020905b815481529060010190602001808311611fa357829003601f168201915b50505050508152602001600282018054611fd990613247565b80601f016020809104026020016040519081016040528092919081815260200182805461200590613247565b80156120525780601f1061202757610100808354040283529160200191612052565b820191906000526020600020905b81548152906001019060200180831161203557829003601f168201915b505050505081526020016003820160009054906101000a900473ffffffffffffffffffffffffffffffffffffffff1673ffffffffffffffffffffffffffffffffffffffff1673ffffffffffffffffffffffffffffffffffffffff1681526020016003820160149054906101000a900460ff16151515158152602001600482015481526020016005820160009054906101000a900473ffffffffffffffffffffffffffffffffffffffff1673ffffffffffffffffffffffffffffffffffffffff1673ffffffffffffffffffffffffffffffffffffffff1681526020016006820154815260200160078201548152505081526020019060010190611f09565b505050509050919050565b60606001600061216a91906125d7565b60005b60008054905081101561233f576001600082815481106121905761218f613164565b5b906000526020600020906008020190806001815401808255809150506001900390600052602060002090600802016000909190919091506000820154816000015560018201816001019080546121e590613247565b6121f09291906125fb565b50600282018160020190805461220590613247565b6122109291906125fb565b506003820160009054906101000a900473ffffffffffffffffffffffffffffffffffffffff168160030160006101000a81548173ffffffffffffffffffffffffffffffffffffffff021916908373ffffffffffffffffffffffffffffffffffffffff1602179055506003820160149054906101000a900460ff168160030160146101000a81548160ff021916908315150217905550600482015481600401556005820160009054906101000a900473ffffffffffffffffffffffffffffffffffffffff168160050160006101000a81548173ffffffffffffffffffffffffffffffffffffffff021916908373ffffffffffffffffffffffffffffffffffffffff16021790555060068201548160060155600782015481600701555050808061233790613279565b91505061216d565b506001805480602002602001604051908101604052809291908181526020016000905b828210156125a8578382906000526020600020906008020160405180610120016040529081600082015481526020016001820180546123a090613247565b80601f01602080910402602001604051908101604052809291908181526020018280546123cc90613247565b80156124195780601f106123ee57610100808354040283529160200191612419565b820191906000526020600020905b8154815290600101906020018083116123fc57829003601f168201915b5050505050815260200160028201805461243290613247565b80601f016020809104026020016040519081016040528092919081815260200182805461245e90613247565b80156124ab5780601f10612480576101008083540402835291602001916124ab565b820191906000526020600020905b81548152906001019060200180831161248e57829003601f168201915b505050505081526020016003820160009054906101000a900473ffffffffffffffffffffffffffffffffffffffff1673ffffffffffffffffffffffffffffffffffffffff1673ffffffffffffffffffffffffffffffffffffffff1681526020016003820160149054906101000a900460ff16151515158152602001600482015481526020016005820160009054906101000a900473ffffffffffffffffffffffffffffffffffffffff1673ffffffffffffffffffffffffffffffffffffffff1673ffffffffffffffffffffffffffffffffffffffff1681526020016006820154815260200160078201548152505081526020019060010190612362565b50505050905090565b600360009054906101000a900473ffffffffffffffffffffffffffffffffffffffff1681565b50805460008255600802906000526020600020908101906125f89190612805565b50565b82805461260790613247565b90600052602060002090601f0160209004810192826126295760008555612677565b82601f1061263a5780548555612677565b8280016001018555821561267757600052602060002091601f016020900482015b8281111561267657825482559160010191906001019061265b565b5b50905061268491906128be565b5090565b50805460008255600302906000526020600020908101906126a991906128db565b50565b82805482825590600052602060002090600302810192821561276e5760005260206000209160030282015b8281111561276d5782826000820160009054906101000a900473ffffffffffffffffffffffffffffffffffffffff168160000160006101000a81548173ffffffffffffffffffffffffffffffffffffffff021916908373ffffffffffffffffffffffffffffffffffffffff16021790555060018201548160010155600282015481600201555050916003019190600301906126d7565b5b50905061277b91906128db565b5090565b82805461278b90613247565b90600052602060002090601f0160209004810192826127ad57600085556127f4565b82601f106127c657805160ff19168380011785556127f4565b828001600101855582156127f4579182015b828111156127f35782518255916020019190600101906127d8565b5b50905061280191906128be565b5090565b5b808211156128ba576000808201600090556001820160006128279190612929565b6002820160006128379190612929565b6003820160006101000a81549073ffffffffffffffffffffffffffffffffffffffff02191690556003820160146101000a81549060ff021916905560048201600090556005820160006101000a81549073ffffffffffffffffffffffffffffffffffffffff02191690556006820160009055600782016000905550600801612806565b5090565b5b808211156128d75760008160009055506001016128bf565b5090565b5b8082111561292557600080820160006101000a81549073ffffffffffffffffffffffffffffffffffffffff021916905560018201600090556002820160009055506003016128dc565b5090565b50805461293590613247565b6000825580601f106129475750612966565b601f01602090049060005260206000209081019061296591906128be565b5b50565b6000604051905090565b600080fd5b600080fd5b6000819050919050565b6129908161297d565b811461299b57600080fd5b50565b6000813590506129ad81612987565b92915050565b6000806000606084860312156129cc576129cb612973565b5b60006129da8682870161299e565b93505060206129eb8682870161299e565b92505060406129fc8682870161299e565b9150509250925092565b600060208284031215612a1c57612a1b612973565b5b6000612a2a8482850161299e565b91505092915050565b612a3c8161297d565b82525050565b600081519050919050565b600082825260208201905092915050565b60005b83811015612a7c578082015181840152602081019050612a61565b83811115612a8b576000848401525b50505050565b6000601f19601f8301169050919050565b6000612aad82612a42565b612ab78185612a4d565b9350612ac7818560208601612a5e565b612ad081612a91565b840191505092915050565b600073ffffffffffffffffffffffffffffffffffffffff82169050919050565b6000612b0682612adb565b9050919050565b612b1681612afb565b82525050565b60008115159050919050565b612b3181612b1c565b82525050565b600061012082019050612b4d600083018c612a33565b8181036020830152612b5f818b612aa2565b90508181036040830152612b73818a612aa2565b9050612b826060830189612b0d565b612b8f6080830188612b28565b612b9c60a0830187612a33565b612ba960c0830186612b0d565b612bb660e0830185612a33565b612bc4610100830184612a33565b9a9950505050505050505050565b600081519050919050565b600082825260208201905092915050565b6000819050602082019050919050565b612c078161297d565b82525050565b600082825260208201905092915050565b6000612c2982612a42565b612c338185612c0d565b9350612c43818560208601612a5e565b612c4c81612a91565b840191505092915050565b612c6081612afb565b82525050565b612c6f81612b1c565b82525050565b600061012083016000830151612c8e6000860182612bfe565b5060208301518482036020860152612ca68282612c1e565b91505060408301518482036040860152612cc08282612c1e565b9150506060830151612cd56060860182612c57565b506080830151612ce86080860182612c66565b5060a0830151612cfb60a0860182612bfe565b5060c0830151612d0e60c0860182612c57565b5060e0830151612d2160e0860182612bfe565b50610100830151612d36610100860182612bfe565b508091505092915050565b6000612d4d8383612c75565b905092915050565b6000602082019050919050565b6000612d6d82612bd2565b612d778185612bdd565b935083602082028501612d8985612bee565b8060005b85811015612dc55784840389528151612da68582612d41565b9450612db183612d55565b925060208a01995050600181019050612d8d565b50829750879550505050505092915050565b60006020820190508181036000830152612df18184612d62565b905092915050565b6000606082019050612e0e6000830186612b0d565b612e1b6020830185612a33565b612e286040830184612a33565b949350505050565b600081519050919050565b600082825260208201905092915050565b6000819050602082019050919050565b606082016000820151612e726000850182612c57565b506020820151612e856020850182612bfe565b506040820151612e986040850182612bfe565b50505050565b6000612eaa8383612e5c565b60608301905092915050565b6000602082019050919050565b6000612ece82612e30565b612ed88185612e3b565b9350612ee383612e4c565b8060005b83811015612f14578151612efb8882612e9e565b9750612f0683612eb6565b925050600181019050612ee7565b5085935050505092915050565b60006020820190508181036000830152612f3b8184612ec3565b905092915050565b600080fd5b600080fd5b7f4e487b7100000000000000000000000000000000000000000000000000000000600052604160045260246000fd5b612f8582612a91565b810181811067ffffffffffffffff82111715612fa457612fa3612f4d565b5b80604052505050565b6000612fb7612969565b9050612fc38282612f7c565b919050565b600067ffffffffffffffff821115612fe357612fe2612f4d565b5b612fec82612a91565b9050602081019050919050565b82818337600083830152505050565b600061301b61301684612fc8565b612fad565b90508281526020810184848401111561303757613036612f48565b5b613042848285612ff9565b509392505050565b600082601f83011261305f5761305e612f43565b5b813561306f848260208601613008565b91505092915050565b6000806040838503121561308f5761308e612973565b5b600083013567ffffffffffffffff8111156130ad576130ac612978565b5b6130b98582860161304a565b925050602083013567ffffffffffffffff8111156130da576130d9612978565b5b6130e68582860161304a565b9150509250929050565b6130f981612afb565b811461310457600080fd5b50565b600081359050613116816130f0565b92915050565b60006020828403121561313257613131612973565b5b600061314084828501613107565b91505092915050565b600060208201905061315e6000830184612b0d565b92915050565b7f4e487b7100000000000000000000000000000000000000000000000000000000600052603260045260246000fd5b7f4e487b7100000000000000000000000000000000000000000000000000000000600052601160045260246000fd5b60006131cd8261297d565b91506131d88361297d565b9250827fffffffffffffffffffffffffffffffffffffffffffffffffffffffffffffffff0382111561320d5761320c613193565b5b828201905092915050565b7f4e487b7100000000000000000000000000000000000000000000000000000000600052602260045260246000fd5b6000600282049050600182168061325f57607f821691505b6020821081141561327357613272613218565b5b50919050565b60006132848261297d565b91507fffffffffffffffffffffffffffffffffffffffffffffffffffffffffffffffff8214156132b7576132b6613193565b5b60018201905091905056fea2646970667358221220771e425d5af406463fe11fb476ca993437d65496bb2f7f5ed1ca3802629494fb64736f6c63430008090033",
  "immutableReferences": {},
  "source": "pragma solidity 0.8.9;\n\n\ncontract NetShop{\n    struct Owner{\n        address owner;\n        uint256 getPrice;\n        uint gettime; \n    }\n    struct Net {\n        // id\n        uint id;\n        // \n        string name;\n        // URL\n        string imgurl;\n        address owner;\n        // \n        bool onsale;\n        // \n        uint startprice;\n        // \n        address bidderhistory;\n        uint256 bidpricehistory;\n        // \n        uint endtime;\n        \n    }\n    // Net\n    Net[] public nets;\n    Net[] public result;\n    Owner[] public temp;\n    address public gameOwner;\n    mapping(uint => Owner[])ownerhistory;\n    constructor()public {\n        gameOwner = msg.sender;\n    }\n    // Net\n    function createNewCharacter(string memory _name,string memory _imgurl) payable public {\n        require(msg.value == 0.1 ether);\n        uint id = nets.length;\n        delete temp;\n        temp.push(Owner(msg.sender,0,block.timestamp));\n        ownerhistory[id] = temp;\n        uint temp2 = 0;\n        address temp3;\n        nets.push(Net({id:id,name:_name,imgurl:_imgurl,owner:msg.sender,onsale:false,startprice:0,bidderhistory:temp3,bidpricehistory:temp2,endtime:block.timestamp}));\n    }\n        function getAllCharacter() public returns(Net[] memory)\n    {\n        delete result;\n        for(uint i=0;i<nets.length;i++)\n        {\n            result.push(nets[i]);\n        }\n        return result;\n    }\n       function getCharacter(address _sender) public returns(Net[] memory){\n        delete result;\n        for (uint i = 0; i < nets.length; i++) {\n            if(nets[i].owner==_sender){\n                result.push(nets[i]);\n            }\n        }\n        return result;\n    }\n    // Net\n    function getAuction() public returns(Net[] memory){\n        delete result;\n        for (uint256 i = 0; i < nets.length; i++) {\n            if(nets[i].onsale==true){\n                result.push(nets[i]);\n            }\n        }\n        return result;\n    }\n    // Net\n    function getMyAuction() public returns(Net[] memory){\n        delete result;\n        for (uint256 i = 0; i < nets.length; i++) {\n            if(nets[i].onsale==true&&msg.sender==nets[i].owner){\n                result.push(nets[i]);\n            }\n        }\n        return result;\n    }\n    // Netonsale\n    function createNewAuction(uint _id,uint _sec,uint256 _startprice) payable public{\n        require(msg.value == 0.1 ether);\n        // uint money=1*10/100;\n        // payable(gameOwner).transfer(10/100);\n        require(msg.sender==nets[_id].owner);\n        require(nets[_id].onsale==false);\n        nets[_id].onsale=true;\n        nets[_id].endtime=block.timestamp+_sec;\n        nets[_id].startprice=_startprice;\n        nets[_id].bidderhistory = msg.sender;\n        nets[_id].bidpricehistory = _startprice;\n    }\n    function bid(uint256 _id)payable public{\n        require(msg.sender !=nets[_id].owner);\n        require(block.timestamp<=nets[_id].endtime);\n        require(nets[_id].onsale=true);\n        require(nets[_id].bidpricehistory<=msg.value);\n            payable(nets[_id].bidderhistory).transfer(nets[_id].bidpricehistory);\n            nets[_id].bidderhistory = msg.sender;\n            nets[_id].bidpricehistory = msg.value;\n    }\n    // Owner\n    function getOwner_history(uint256 _id)public view returns(Owner[] memory){\n        return ownerhistory[_id];\n    }\n    function change_Owner (uint256 _id) public\n    {\n        require(msg.sender == nets[_id].bidderhistory);\n        require(block.timestamp >= nets[_id].endtime);\n        payable(nets[_id].owner).transfer(nets[_id].bidpricehistory);\n        ownerhistory[_id].push(Owner(msg.sender,nets[_id].bidpricehistory,nets[_id].endtime));\n        nets[_id].onsale = false;\n        nets[_id].owner = msg.sender;\n        nets[_id].startprice = 0;\n        nets[_id].bidderhistory = address(0);\n        nets[_id].bidpricehistory = 0;\n    }\n    // \n}",
  "sourcePath": "F:\\BlockChain\\netshop\\src\\Build\\contracts\\NetShop.sol",
  "compiler": {
    "name": "solc",
    "version": "0.8.9+commit.e5eed63a.Emscripten.clang"
  },
  "schemaVersion": "3.4.3",
  "updatedAt": "2021-11-03T04:48:46.590Z",
  "networkType": "ethereum",
  "devdoc": {
    "kind": "dev",
    "methods": {},
    "version": 1
  },
  "userdoc": {
    "kind": "user",
    "methods": {},
    "version": 1
  }
}