{
  "contractName": "NetShop",
  "abi": [
    {
      "inputs": [],
      "stateMutability": "nonpayable",
      "type": "constructor"
    },
    {
      "inputs": [],
      "name": "gameOwner",
      "outputs": [
        {
          "internalType": "address",
          "name": "",
          "type": "address"
        }
      ],
      "stateMutability": "view",
      "type": "function",
      "constant": true
    },
    {
      "inputs": [
        {
          "internalType": "uint256",
          "name": "",
          "type": "uint256"
        }
      ],
      "name": "nets",
      "outputs": [
        {
          "internalType": "uint256",
          "name": "id",
          "type": "uint256"
        },
        {
          "internalType": "string",
          "name": "name",
          "type": "string"
        },
        {
          "internalType": "string",
          "name": "imgurl",
          "type": "string"
        },
        {
          "internalType": "address",
          "name": "owner",
          "type": "address"
        },
        {
          "internalType": "bool",
          "name": "onsale",
          "type": "bool"
        },
        {
          "internalType": "uint256",
          "name": "startprice",
          "type": "uint256"
        },
        {
          "internalType": "address",
          "name": "bidderhistory",
          "type": "address"
        },
        {
          "internalType": "uint256",
          "name": "bidpricehistory",
          "type": "uint256"
        },
        {
          "internalType": "uint256",
          "name": "endtime",
          "type": "uint256"
        }
      ],
      "stateMutability": "view",
      "type": "function",
      "constant": true
    },
    {
      "inputs": [
        {
          "internalType": "uint256",
          "name": "",
          "type": "uint256"
        }
      ],
      "name": "result",
      "outputs": [
        {
          "internalType": "uint256",
          "name": "id",
          "type": "uint256"
        },
        {
          "internalType": "string",
          "name": "name",
          "type": "string"
        },
        {
          "internalType": "string",
          "name": "imgurl",
          "type": "string"
        },
        {
          "internalType": "address",
          "name": "owner",
          "type": "address"
        },
        {
          "internalType": "bool",
          "name": "onsale",
          "type": "bool"
        },
        {
          "internalType": "uint256",
          "name": "startprice",
          "type": "uint256"
        },
        {
          "internalType": "address",
          "name": "bidderhistory",
          "type": "address"
        },
        {
          "internalType": "uint256",
          "name": "bidpricehistory",
          "type": "uint256"
        },
        {
          "internalType": "uint256",
          "name": "endtime",
          "type": "uint256"
        }
      ],
      "stateMutability": "view",
      "type": "function",
      "constant": true
    },
    {
      "inputs": [
        {
          "internalType": "uint256",
          "name": "",
          "type": "uint256"
        }
      ],
      "name": "temp",
      "outputs": [
        {
          "internalType": "address",
          "name": "owner",
          "type": "address"
        },
        {
          "internalType": "uint256",
          "name": "getPrice",
          "type": "uint256"
        },
        {
          "internalType": "uint256",
          "name": "gettime",
          "type": "uint256"
        }
      ],
      "stateMutability": "view",
      "type": "function",
      "constant": true
    },
    {
      "inputs": [
        {
          "internalType": "string",
          "name": "_name",
          "type": "string"
        },
        {
          "internalType": "string",
          "name": "_imgurl",
          "type": "string"
        }
      ],
      "name": "createNewCharacter",
      "outputs": [],
      "stateMutability": "payable",
      "type": "function",
      "payable": true
    },
    {
      "inputs": [],
      "name": "getAllCharacter",
      "outputs": [
        {
          "components": [
            {
              "internalType": "uint256",
              "name": "id",
              "type": "uint256"
            },
            {
              "internalType": "string",
              "name": "name",
              "type": "string"
            },
            {
              "internalType": "string",
              "name": "imgurl",
              "type": "string"
            },
            {
              "internalType": "address",
              "name": "owner",
              "type": "address"
            },
            {
              "internalType": "bool",
              "name": "onsale",
              "type": "bool"
            },
            {
              "internalType": "uint256",
              "name": "startprice",
              "type": "uint256"
            },
            {
              "internalType": "address",
              "name": "bidderhistory",
              "type": "address"
            },
            {
              "internalType": "uint256",
              "name": "bidpricehistory",
              "type": "uint256"
            },
            {
              "internalType": "uint256",
              "name": "endtime",
              "type": "uint256"
            }
          ],
          "internalType": "struct NetShop.Net[]",
          "name": "",
          "type": "tuple[]"
        }
      ],
      "stateMutability": "nonpayable",
      "type": "function"
    },
    {
      "inputs": [
        {
          "internalType": "address",
          "name": "_sender",
          "type": "address"
        }
      ],
      "name": "getCharacter",
      "outputs": [
        {
          "components": [
            {
              "internalType": "uint256",
              "name": "id",
              "type": "uint256"
            },
            {
              "internalType": "string",
              "name": "name",
              "type": "string"
            },
            {
              "internalType": "string",
              "name": "imgurl",
              "type": "string"
            },
            {
              "internalType": "address",
              "name": "owner",
              "type": "address"
            },
            {
              "internalType": "bool",
              "name": "onsale",
              "type": "bool"
            },
            {
              "internalType": "uint256",
              "name": "startprice",
              "type": "uint256"
            },
            {
              "internalType": "address",
              "name": "bidderhistory",
              "type": "address"
            },
            {
              "internalType": "uint256",
              "name": "bidpricehistory",
              "type": "uint256"
            },
            {
              "internalType": "uint256",
              "name": "endtime",
              "type": "uint256"
            }
          ],
          "internalType": "struct NetShop.Net[]",
          "name": "",
          "type": "tuple[]"
        }
      ],
      "stateMutability": "nonpayable",
      "type": "function"
    },
    {
      "inputs": [],
      "name": "getAuction",
      "outputs": [
        {
          "components": [
            {
              "internalType": "uint256",
              "name": "id",
              "type": "uint256"
            },
            {
              "internalType": "string",
              "name": "name",
              "type": "string"
            },
            {
              "internalType": "string",
              "name": "imgurl",
              "type": "string"
            },
            {
              "internalType": "address",
              "name": "owner",
              "type": "address"
            },
            {
              "internalType": "bool",
              "name": "onsale",
              "type": "bool"
            },
            {
              "internalType": "uint256",
              "name": "startprice",
              "type": "uint256"
            },
            {
              "internalType": "address",
              "name": "bidderhistory",
              "type": "address"
            },
            {
              "internalType": "uint256",
              "name": "bidpricehistory",
              "type": "uint256"
            },
            {
              "internalType": "uint256",
              "name": "endtime",
              "type": "uint256"
            }
          ],
          "internalType": "struct NetShop.Net[]",
          "name": "",
          "type": "tuple[]"
        }
      ],
      "stateMutability": "nonpayable",
      "type": "function"
    },
    {
      "inputs": [
        {
          "internalType": "address",
          "name": "Owner",
          "type": "address"
        }
      ],
      "name": "getMyAuction",
      "outputs": [
        {
          "components": [
            {
              "internalType": "uint256",
              "name": "id",
              "type": "uint256"
            },
            {
              "internalType": "string",
              "name": "name",
              "type": "string"
            },
            {
              "internalType": "string",
              "name": "imgurl",
              "type": "string"
            },
            {
              "internalType": "address",
              "name": "owner",
              "type": "address"
            },
            {
              "internalType": "bool",
              "name": "onsale",
              "type": "bool"
            },
            {
              "internalType": "uint256",
              "name": "startprice",
              "type": "uint256"
            },
            {
              "internalType": "address",
              "name": "bidderhistory",
              "type": "address"
            },
            {
              "internalType": "uint256",
              "name": "bidpricehistory",
              "type": "uint256"
            },
            {
              "internalType": "uint256",
              "name": "endtime",
              "type": "uint256"
            }
          ],
          "internalType": "struct NetShop.Net[]",
          "name": "",
          "type": "tuple[]"
        }
      ],
      "stateMutability": "nonpayable",
      "type": "function"
    },
    {
      "inputs": [
        {
          "internalType": "uint256",
          "name": "_id",
          "type": "uint256"
        },
        {
          "internalType": "uint256",
          "name": "_sec",
          "type": "uint256"
        },
        {
          "internalType": "uint256",
          "name": "_startprice",
          "type": "uint256"
        }
      ],
      "name": "createNewAuction",
      "outputs": [],
      "stateMutability": "payable",
      "type": "function",
      "payable": true
    },
    {
      "inputs": [
        {
          "internalType": "uint256",
          "name": "_id",
          "type": "uint256"
        }
      ],
      "name": "bid",
      "outputs": [],
      "stateMutability": "payable",
      "type": "function",
      "payable": true
    },
    {
      "inputs": [
        {
          "internalType": "uint256",
          "name": "_id",
          "type": "uint256"
        }
      ],
      "name": "getOwner_history",
      "outputs": [
        {
          "components": [
            {
              "internalType": "address",
              "name": "owner",
              "type": "address"
            },
            {
              "internalType": "uint256",
              "name": "getPrice",
              "type": "uint256"
            },
            {
              "internalType": "uint256",
              "name": "gettime",
              "type": "uint256"
            }
          ],
          "internalType": "struct NetShop.Owner[]",
          "name": "",
          "type": "tuple[]"
        }
      ],
      "stateMutability": "view",
      "type": "function",
      "constant": true
    },
    {
      "inputs": [
        {
          "internalType": "uint256",
          "name": "_id",
          "type": "uint256"
        }
      ],
      "name": "change_Owner",
      "outputs": [],
      "stateMutability": "nonpayable",
      "type": "function"
    }
  ],
  "bytecode": "0x608060405234801561001057600080fd5b5033600360006101000a81548173ffffffffffffffffffffffffffffffffffffffff021916908373ffffffffffffffffffffffffffffffffffffffff16021790555061330c806100616000396000f3fe6080604052600436106100c25760003560e01c8063870ff1381161007f578063c88d258d11610059578063c88d258d14610296578063ebd0c91c146102b2578063f3507502146102ef578063f6b12f281461031a576100c2565b8063870ff138146101f35780639faf661e1461021c578063a778d7ba14610259576100c2565b806312ba0a41146100c757806333f81458146100e35780633c59405914610128578063454a2ab31461016d5780636c3755ad146101895780637327df25146101c8575b600080fd5b6100e160048036038101906100dc91906129c7565b610345565b005b3480156100ef57600080fd5b5061010a60048036038101906101059190612a1a565b610549565b60405161011f99989796959493929190612b4b565b60405180910390f35b34801561013457600080fd5b5061014f600480360381019061014a9190612a1a565b610704565b60405161016499989796959493929190612b4b565b60405180910390f35b61018760048036038101906101829190612a1a565b6108bf565b005b34801561019557600080fd5b506101b060048036038101906101ab9190612a1a565b610b29565b6040516101bf93929190612be6565b60405180910390f35b3480156101d457600080fd5b506101dd610b83565b6040516101ea9190612e22565b60405180910390f35b3480156101ff57600080fd5b5061021a60048036038101906102159190612a1a565b61101a565b005b34801561022857600080fd5b50610243600480360381019061023e9190612e70565b6113ea565b6040516102509190612e22565b60405180910390f35b34801561026557600080fd5b50610280600480360381019061027b9190612a1a565b6118ff565b60405161028d9190612f8e565b60405180910390f35b6102b060048036038101906102ab91906130e5565b6119db565b005b3480156102be57600080fd5b506102d960048036038101906102d49190612e70565b611c9b565b6040516102e69190612e22565b60405180910390f35b3480156102fb57600080fd5b5061030461216e565b6040516103119190612e22565b60405180910390f35b34801561032657600080fd5b5061032f6125c5565b60405161033c919061315d565b60405180910390f35b67016345785d8a0000341461035957600080fd5b6000838154811061036d5761036c613178565b5b906000526020600020906008020160030160009054906101000a900473ffffffffffffffffffffffffffffffffffffffff1673ffffffffffffffffffffffffffffffffffffffff163373ffffffffffffffffffffffffffffffffffffffff16146103d657600080fd5b60001515600084815481106103ee576103ed613178565b5b906000526020600020906008020160030160149054906101000a900460ff1615151461041957600080fd5b60016000848154811061042f5761042e613178565b5b906000526020600020906008020160030160146101000a81548160ff021916908315150217905550814261046391906131d6565b6000848154811061047757610476613178565b5b90600052602060002090600802016007018190555080600084815481106104a1576104a0613178565b5b90600052602060002090600802016004018190555033600084815481106104cb576104ca613178565b5b906000526020600020906008020160050160006101000a81548173ffffffffffffffffffffffffffffffffffffffff021916908373ffffffffffffffffffffffffffffffffffffffff160217905550806000848154811061052f5761052e613178565b5b906000526020600020906008020160060181905550505050565b6000818154811061055957600080fd5b90600052602060002090600802016000915090508060000154908060010180546105829061325b565b80601f01602080910402602001604051908101604052809291908181526020018280546105ae9061325b565b80156105fb5780601f106105d0576101008083540402835291602001916105fb565b820191906000526020600020905b8154815290600101906020018083116105de57829003601f168201915b5050505050908060020180546106109061325b565b80601f016020809104026020016040519081016040528092919081815260200182805461063c9061325b565b80156106895780601f1061065e57610100808354040283529160200191610689565b820191906000526020600020905b81548152906001019060200180831161066c57829003601f168201915b5050505050908060030160009054906101000a900473ffffffffffffffffffffffffffffffffffffffff16908060030160149054906101000a900460ff16908060040154908060050160009054906101000a900473ffffffffffffffffffffffffffffffffffffffff16908060060154908060070154905089565b6001818154811061071457600080fd5b906000526020600020906008020160009150905080600001549080600101805461073d9061325b565b80601f01602080910402602001604051908101604052809291908181526020018280546107699061325b565b80156107b65780601f1061078b576101008083540402835291602001916107b6565b820191906000526020600020905b81548152906001019060200180831161079957829003601f168201915b5050505050908060020180546107cb9061325b565b80601f01602080910402602001604051908101604052809291908181526020018280546107f79061325b565b80156108445780601f1061081957610100808354040283529160200191610844565b820191906000526020600020905b81548152906001019060200180831161082757829003601f168201915b5050505050908060030160009054906101000a900473ffffffffffffffffffffffffffffffffffffffff16908060030160149054906101000a900460ff16908060040154908060050160009054906101000a900473ffffffffffffffffffffffffffffffffffffffff16908060060154908060070154905089565b600081815481106108d3576108d2613178565b5b906000526020600020906008020160030160009054906101000a900473ffffffffffffffffffffffffffffffffffffffff1673ffffffffffffffffffffffffffffffffffffffff163373ffffffffffffffffffffffffffffffffffffffff16141561093d57600080fd5b6000818154811061095157610950613178565b5b90600052602060002090600802016007015442111561096f57600080fd5b60016000828154811061098557610984613178565b5b906000526020600020906008020160030160146101000a81548160ff02191690831515021790556109b557600080fd5b34600082815481106109ca576109c9613178565b5b90600052602060002090600802016006015411156109e757600080fd5b600081815481106109fb576109fa613178565b5b906000526020600020906008020160050160009054906101000a900473ffffffffffffffffffffffffffffffffffffffff1673ffffffffffffffffffffffffffffffffffffffff166108fc60008381548110610a5a57610a59613178565b5b9060005260206000209060080201600601549081150290604051600060405180830381858888f19350505050158015610a97573d6000803e3d6000fd5b503360008281548110610aad57610aac613178565b5b906000526020600020906008020160050160006101000a81548173ffffffffffffffffffffffffffffffffffffffff021916908373ffffffffffffffffffffffffffffffffffffffff1602179055503460008281548110610b1157610b10613178565b5b90600052602060002090600802016006018190555050565b60028181548110610b3957600080fd5b90600052602060002090600302016000915090508060000160009054906101000a900473ffffffffffffffffffffffffffffffffffffffff16908060010154908060020154905083565b606060016000610b9391906125eb565b60005b600080549050811015610da8576001151560008281548110610bbb57610bba613178565b5b906000526020600020906008020160030160149054906101000a900460ff1615151415610d9557600160008281548110610bf857610bf7613178565b5b90600052602060002090600802019080600181540180825580915050600190039060005260206000209060080201600090919091909150600082015481600001556001820181600101908054610c4d9061325b565b610c5892919061260f565b506002820181600201908054610c6d9061325b565b610c7892919061260f565b506003820160009054906101000a900473ffffffffffffffffffffffffffffffffffffffff168160030160006101000a81548173ffffffffffffffffffffffffffffffffffffffff021916908373ffffffffffffffffffffffffffffffffffffffff1602179055506003820160149054906101000a900460ff168160030160146101000a81548160ff021916908315150217905550600482015481600401556005820160009054906101000a900473ffffffffffffffffffffffffffffffffffffffff168160050160006101000a81548173ffffffffffffffffffffffffffffffffffffffff021916908373ffffffffffffffffffffffffffffffffffffffff160217905550600682015481600601556007820154816007015550505b8080610da09061328d565b915050610b96565b506001805480602002602001604051908101604052809291908181526020016000905b8282101561101157838290600052602060002090600802016040518061012001604052908160008201548152602001600182018054610e099061325b565b80601f0160208091040260200160405190810160405280929190818152602001828054610e359061325b565b8015610e825780601f10610e5757610100808354040283529160200191610e82565b820191906000526020600020905b815481529060010190602001808311610e6557829003601f168201915b50505050508152602001600282018054610e9b9061325b565b80601f0160208091040260200160405190810160405280929190818152602001828054610ec79061325b565b8015610f145780601f10610ee957610100808354040283529160200191610f14565b820191906000526020600020905b815481529060010190602001808311610ef757829003601f168201915b505050505081526020016003820160009054906101000a900473ffffffffffffffffffffffffffffffffffffffff1673ffffffffffffffffffffffffffffffffffffffff1673ffffffffffffffffffffffffffffffffffffffff1681526020016003820160149054906101000a900460ff16151515158152602001600482015481526020016005820160009054906101000a900473ffffffffffffffffffffffffffffffffffffffff1673ffffffffffffffffffffffffffffffffffffffff1673ffffffffffffffffffffffffffffffffffffffff1681526020016006820154815260200160078201548152505081526020019060010190610dcb565b50505050905090565b6000818154811061102e5761102d613178565b5b906000526020600020906008020160050160009054906101000a900473ffffffffffffffffffffffffffffffffffffffff1673ffffffffffffffffffffffffffffffffffffffff163373ffffffffffffffffffffffffffffffffffffffff161461109757600080fd5b600081815481106110ab576110aa613178565b5b9060005260206000209060080201600701544210156110c957600080fd5b600081815481106110dd576110dc613178565b5b906000526020600020906008020160030160009054906101000a900473ffffffffffffffffffffffffffffffffffffffff1673ffffffffffffffffffffffffffffffffffffffff166108fc6000838154811061113c5761113b613178565b5b9060005260206000209060080201600601549081150290604051600060405180830381858888f19350505050158015611179573d6000803e3d6000fd5b506004600082815260200190815260200160002060405180606001604052803373ffffffffffffffffffffffffffffffffffffffff168152602001600084815481106111c8576111c7613178565b5b9060005260206000209060080201600601548152602001600084815481106111f3576111f2613178565b5b906000526020600020906008020160070154815250908060018154018082558091505060019003906000526020600020906003020160009091909190915060008201518160000160006101000a81548173ffffffffffffffffffffffffffffffffffffffff021916908373ffffffffffffffffffffffffffffffffffffffff1602179055506020820151816001015560408201518160020155505060008082815481106112a3576112a2613178565b5b906000526020600020906008020160030160146101000a81548160ff02191690831515021790555033600082815481106112e0576112df613178565b5b906000526020600020906008020160030160006101000a81548173ffffffffffffffffffffffffffffffffffffffff021916908373ffffffffffffffffffffffffffffffffffffffff160217905550600080828154811061134457611343613178565b5b906000526020600020906008020160040181905550600080828154811061136e5761136d613178565b5b906000526020600020906008020160050160006101000a81548173ffffffffffffffffffffffffffffffffffffffff021916908373ffffffffffffffffffffffffffffffffffffffff16021790555060008082815481106113d2576113d1613178565b5b90600052602060002090600802016006018190555050565b6060600160006113fa91906125eb565b60005b60008054905081101561168b57600115156000828154811061142257611421613178565b5b906000526020600020906008020160030160149054906101000a900460ff1615151480156114c057506000818154811061145f5761145e613178565b5b906000526020600020906008020160030160009054906101000a900473ffffffffffffffffffffffffffffffffffffffff1673ffffffffffffffffffffffffffffffffffffffff168373ffffffffffffffffffffffffffffffffffffffff16145b15611678576001600082815481106114db576114da613178565b5b906000526020600020906008020190806001815401808255809150506001900390600052602060002090600802016000909190919091506000820154816000015560018201816001019080546115309061325b565b61153b92919061260f565b5060028201816002019080546115509061325b565b61155b92919061260f565b506003820160009054906101000a900473ffffffffffffffffffffffffffffffffffffffff168160030160006101000a81548173ffffffffffffffffffffffffffffffffffffffff021916908373ffffffffffffffffffffffffffffffffffffffff1602179055506003820160149054906101000a900460ff168160030160146101000a81548160ff021916908315150217905550600482015481600401556005820160009054906101000a900473ffffffffffffffffffffffffffffffffffffffff168160050160006101000a81548173ffffffffffffffffffffffffffffffffffffffff021916908373ffffffffffffffffffffffffffffffffffffffff160217905550600682015481600601556007820154816007015550505b80806116839061328d565b9150506113fd565b506001805480602002602001604051908101604052809291908181526020016000905b828210156118f4578382906000526020600020906008020160405180610120016040529081600082015481526020016001820180546116ec9061325b565b80601f01602080910402602001604051908101604052809291908181526020018280546117189061325b565b80156117655780601f1061173a57610100808354040283529160200191611765565b820191906000526020600020905b81548152906001019060200180831161174857829003601f168201915b5050505050815260200160028201805461177e9061325b565b80601f01602080910402602001604051908101604052809291908181526020018280546117aa9061325b565b80156117f75780601f106117cc576101008083540402835291602001916117f7565b820191906000526020600020905b8154815290600101906020018083116117da57829003601f168201915b505050505081526020016003820160009054906101000a900473ffffffffffffffffffffffffffffffffffffffff1673ffffffffffffffffffffffffffffffffffffffff1673ffffffffffffffffffffffffffffffffffffffff1681526020016003820160149054906101000a900460ff16151515158152602001600482015481526020016005820160009054906101000a900473ffffffffffffffffffffffffffffffffffffffff1673ffffffffffffffffffffffffffffffffffffffff1673ffffffffffffffffffffffffffffffffffffffff16815260200160068201548152602001600782015481525050815260200190600101906116ae565b505050509050919050565b606060046000838152602001908152602001600020805480602002602001604051908101604052809291908181526020016000905b828210156119d057838290600052602060002090600302016040518060600160405290816000820160009054906101000a900473ffffffffffffffffffffffffffffffffffffffff1673ffffffffffffffffffffffffffffffffffffffff1673ffffffffffffffffffffffffffffffffffffffff1681526020016001820154815260200160028201548152505081526020019060010190611934565b505050509050919050565b67016345785d8a000034146119ef57600080fd5b60008080549050905060026000611a06919061269c565b600260405180606001604052803373ffffffffffffffffffffffffffffffffffffffff1681526020016000815260200142815250908060018154018082558091505060019003906000526020600020906003020160009091909190915060008201518160000160006101000a81548173ffffffffffffffffffffffffffffffffffffffff021916908373ffffffffffffffffffffffffffffffffffffffff16021790555060208201518160010155604082015181600201555050600260046000838152602001908152602001600020908054611ae39291906126c0565b50600080806040518061012001604052808581526020018781526020018681526020013373ffffffffffffffffffffffffffffffffffffffff168152602001600015158152602001600081526020018373ffffffffffffffffffffffffffffffffffffffff168152602001848152602001428152509080600181540180825580915050600190039060005260206000209060080201600090919091909150600082015181600001556020820151816001019080519060200190611ba7929190612793565b506040820151816002019080519060200190611bc4929190612793565b5060608201518160030160006101000a81548173ffffffffffffffffffffffffffffffffffffffff021916908373ffffffffffffffffffffffffffffffffffffffff16021790555060808201518160030160146101000a81548160ff02191690831515021790555060a0820151816004015560c08201518160050160006101000a81548173ffffffffffffffffffffffffffffffffffffffff021916908373ffffffffffffffffffffffffffffffffffffffff16021790555060e08201518160060155610100820151816007015550505050505050565b606060016000611cab91906125eb565b60005b600080549050811015611efa578273ffffffffffffffffffffffffffffffffffffffff1660008281548110611ce657611ce5613178565b5b906000526020600020906008020160030160009054906101000a900473ffffffffffffffffffffffffffffffffffffffff1673ffffffffffffffffffffffffffffffffffffffff161415611ee757600160008281548110611d4a57611d49613178565b5b90600052602060002090600802019080600181540180825580915050600190039060005260206000209060080201600090919091909150600082015481600001556001820181600101908054611d9f9061325b565b611daa92919061260f565b506002820181600201908054611dbf9061325b565b611dca92919061260f565b506003820160009054906101000a900473ffffffffffffffffffffffffffffffffffffffff168160030160006101000a81548173ffffffffffffffffffffffffffffffffffffffff021916908373ffffffffffffffffffffffffffffffffffffffff1602179055506003820160149054906101000a900460ff168160030160146101000a81548160ff021916908315150217905550600482015481600401556005820160009054906101000a900473ffffffffffffffffffffffffffffffffffffffff168160050160006101000a81548173ffffffffffffffffffffffffffffffffffffffff021916908373ffffffffffffffffffffffffffffffffffffffff160217905550600682015481600601556007820154816007015550505b8080611ef29061328d565b915050611cae565b506001805480602002602001604051908101604052809291908181526020016000905b8282101561216357838290600052602060002090600802016040518061012001604052908160008201548152602001600182018054611f5b9061325b565b80601f0160208091040260200160405190810160405280929190818152602001828054611f879061325b565b8015611fd45780601f10611fa957610100808354040283529160200191611fd4565b820191906000526020600020905b815481529060010190602001808311611fb757829003601f168201915b50505050508152602001600282018054611fed9061325b565b80601f01602080910402602001604051908101604052809291908181526020018280546120199061325b565b80156120665780601f1061203b57610100808354040283529160200191612066565b820191906000526020600020905b81548152906001019060200180831161204957829003601f168201915b505050505081526020016003820160009054906101000a900473ffffffffffffffffffffffffffffffffffffffff1673ffffffffffffffffffffffffffffffffffffffff1673ffffffffffffffffffffffffffffffffffffffff1681526020016003820160149054906101000a900460ff16151515158152602001600482015481526020016005820160009054906101000a900473ffffffffffffffffffffffffffffffffffffffff1673ffffffffffffffffffffffffffffffffffffffff1673ffffffffffffffffffffffffffffffffffffffff1681526020016006820154815260200160078201548152505081526020019060010190611f1d565b505050509050919050565b60606001600061217e91906125eb565b60005b600080549050811015612353576001600082815481106121a4576121a3613178565b5b906000526020600020906008020190806001815401808255809150506001900390600052602060002090600802016000909190919091506000820154816000015560018201816001019080546121f99061325b565b61220492919061260f565b5060028201816002019080546122199061325b565b61222492919061260f565b506003820160009054906101000a900473ffffffffffffffffffffffffffffffffffffffff168160030160006101000a81548173ffffffffffffffffffffffffffffffffffffffff021916908373ffffffffffffffffffffffffffffffffffffffff1602179055506003820160149054906101000a900460ff168160030160146101000a81548160ff021916908315150217905550600482015481600401556005820160009054906101000a900473ffffffffffffffffffffffffffffffffffffffff168160050160006101000a81548173ffffffffffffffffffffffffffffffffffffffff021916908373ffffffffffffffffffffffffffffffffffffffff16021790555060068201548160060155600782015481600701555050808061234b9061328d565b915050612181565b506001805480602002602001604051908101604052809291908181526020016000905b828210156125bc578382906000526020600020906008020160405180610120016040529081600082015481526020016001820180546123b49061325b565b80601f01602080910402602001604051908101604052809291908181526020018280546123e09061325b565b801561242d5780601f106124025761010080835404028352916020019161242d565b820191906000526020600020905b81548152906001019060200180831161241057829003601f168201915b505050505081526020016002820180546124469061325b565b80601f01602080910402602001604051908101604052809291908181526020018280546124729061325b565b80156124bf5780601f10612494576101008083540402835291602001916124bf565b820191906000526020600020905b8154815290600101906020018083116124a257829003601f168201915b505050505081526020016003820160009054906101000a900473ffffffffffffffffffffffffffffffffffffffff1673ffffffffffffffffffffffffffffffffffffffff1673ffffffffffffffffffffffffffffffffffffffff1681526020016003820160149054906101000a900460ff16151515158152602001600482015481526020016005820160009054906101000a900473ffffffffffffffffffffffffffffffffffffffff1673ffffffffffffffffffffffffffffffffffffffff1673ffffffffffffffffffffffffffffffffffffffff1681526020016006820154815260200160078201548152505081526020019060010190612376565b50505050905090565b600360009054906101000a900473ffffffffffffffffffffffffffffffffffffffff1681565b508054600082556008029060005260206000209081019061260c9190612819565b50565b82805461261b9061325b565b90600052602060002090601f01602090048101928261263d576000855561268b565b82601f1061264e578054855561268b565b8280016001018555821561268b57600052602060002091601f016020900482015b8281111561268a57825482559160010191906001019061266f565b5b50905061269891906128d2565b5090565b50805460008255600302906000526020600020908101906126bd91906128ef565b50565b8280548282559060005260206000209060030281019282156127825760005260206000209160030282015b828111156127815782826000820160009054906101000a900473ffffffffffffffffffffffffffffffffffffffff168160000160006101000a81548173ffffffffffffffffffffffffffffffffffffffff021916908373ffffffffffffffffffffffffffffffffffffffff16021790555060018201548160010155600282015481600201555050916003019190600301906126eb565b5b50905061278f91906128ef565b5090565b82805461279f9061325b565b90600052602060002090601f0160209004810192826127c15760008555612808565b82601f106127da57805160ff1916838001178555612808565b82800160010185558215612808579182015b828111156128075782518255916020019190600101906127ec565b5b50905061281591906128d2565b5090565b5b808211156128ce5760008082016000905560018201600061283b919061293d565b60028201600061284b919061293d565b6003820160006101000a81549073ffffffffffffffffffffffffffffffffffffffff02191690556003820160146101000a81549060ff021916905560048201600090556005820160006101000a81549073ffffffffffffffffffffffffffffffffffffffff0219169055600682016000905560078201600090555060080161281a565b5090565b5b808211156128eb5760008160009055506001016128d3565b5090565b5b8082111561293957600080820160006101000a81549073ffffffffffffffffffffffffffffffffffffffff021916905560018201600090556002820160009055506003016128f0565b5090565b5080546129499061325b565b6000825580601f1061295b575061297a565b601f01602090049060005260206000209081019061297991906128d2565b5b50565b6000604051905090565b600080fd5b600080fd5b6000819050919050565b6129a481612991565b81146129af57600080fd5b50565b6000813590506129c18161299b565b92915050565b6000806000606084860312156129e0576129df612987565b5b60006129ee868287016129b2565b93505060206129ff868287016129b2565b9250506040612a10868287016129b2565b9150509250925092565b600060208284031215612a3057612a2f612987565b5b6000612a3e848285016129b2565b91505092915050565b612a5081612991565b82525050565b600081519050919050565b600082825260208201905092915050565b60005b83811015612a90578082015181840152602081019050612a75565b83811115612a9f576000848401525b50505050565b6000601f19601f8301169050919050565b6000612ac182612a56565b612acb8185612a61565b9350612adb818560208601612a72565b612ae481612aa5565b840191505092915050565b600073ffffffffffffffffffffffffffffffffffffffff82169050919050565b6000612b1a82612aef565b9050919050565b612b2a81612b0f565b82525050565b60008115159050919050565b612b4581612b30565b82525050565b600061012082019050612b61600083018c612a47565b8181036020830152612b73818b612ab6565b90508181036040830152612b87818a612ab6565b9050612b966060830189612b21565b612ba36080830188612b3c565b612bb060a0830187612a47565b612bbd60c0830186612b21565b612bca60e0830185612a47565b612bd8610100830184612a47565b9a9950505050505050505050565b6000606082019050612bfb6000830186612b21565b612c086020830185612a47565b612c156040830184612a47565b949350505050565b600081519050919050565b600082825260208201905092915050565b6000819050602082019050919050565b612c5281612991565b82525050565b600082825260208201905092915050565b6000612c7482612a56565b612c7e8185612c58565b9350612c8e818560208601612a72565b612c9781612aa5565b840191505092915050565b612cab81612b0f565b82525050565b612cba81612b30565b82525050565b600061012083016000830151612cd96000860182612c49565b5060208301518482036020860152612cf18282612c69565b91505060408301518482036040860152612d0b8282612c69565b9150506060830151612d206060860182612ca2565b506080830151612d336080860182612cb1565b5060a0830151612d4660a0860182612c49565b5060c0830151612d5960c0860182612ca2565b5060e0830151612d6c60e0860182612c49565b50610100830151612d81610100860182612c49565b508091505092915050565b6000612d988383612cc0565b905092915050565b6000602082019050919050565b6000612db882612c1d565b612dc28185612c28565b935083602082028501612dd485612c39565b8060005b85811015612e105784840389528151612df18582612d8c565b9450612dfc83612da0565b925060208a01995050600181019050612dd8565b50829750879550505050505092915050565b60006020820190508181036000830152612e3c8184612dad565b905092915050565b612e4d81612b0f565b8114612e5857600080fd5b50565b600081359050612e6a81612e44565b92915050565b600060208284031215612e8657612e85612987565b5b6000612e9484828501612e5b565b91505092915050565b600081519050919050565b600082825260208201905092915050565b6000819050602082019050919050565b606082016000820151612edf6000850182612ca2565b506020820151612ef26020850182612c49565b506040820151612f056040850182612c49565b50505050565b6000612f178383612ec9565b60608301905092915050565b6000602082019050919050565b6000612f3b82612e9d565b612f458185612ea8565b9350612f5083612eb9565b8060005b83811015612f81578151612f688882612f0b565b9750612f7383612f23565b925050600181019050612f54565b5085935050505092915050565b60006020820190508181036000830152612fa88184612f30565b905092915050565b600080fd5b600080fd5b7f4e487b7100000000000000000000000000000000000000000000000000000000600052604160045260246000fd5b612ff282612aa5565b810181811067ffffffffffffffff8211171561301157613010612fba565b5b80604052505050565b600061302461297d565b90506130308282612fe9565b919050565b600067ffffffffffffffff8211156130505761304f612fba565b5b61305982612aa5565b9050602081019050919050565b82818337600083830152505050565b600061308861308384613035565b61301a565b9050828152602081018484840111156130a4576130a3612fb5565b5b6130af848285613066565b509392505050565b600082601f8301126130cc576130cb612fb0565b5b81356130dc848260208601613075565b91505092915050565b600080604083850312156130fc576130fb612987565b5b600083013567ffffffffffffffff81111561311a5761311961298c565b5b613126858286016130b7565b925050602083013567ffffffffffffffff8111156131475761314661298c565b5b613153858286016130b7565b9150509250929050565b60006020820190506131726000830184612b21565b92915050565b7f4e487b7100000000000000000000000000000000000000000000000000000000600052603260045260246000fd5b7f4e487b7100000000000000000000000000000000000000000000000000000000600052601160045260246000fd5b60006131e182612991565b91506131ec83612991565b9250827fffffffffffffffffffffffffffffffffffffffffffffffffffffffffffffffff03821115613221576132206131a7565b5b828201905092915050565b7f4e487b7100000000000000000000000000000000000000000000000000000000600052602260045260246000fd5b6000600282049050600182168061327357607f821691505b602082108114156132875761328661322c565b5b50919050565b600061329882612991565b91507fffffffffffffffffffffffffffffffffffffffffffffffffffffffffffffffff8214156132cb576132ca6131a7565b5b60018201905091905056fea2646970667358221220ebd0c9124a5f26280aecfe7ac451ab4f328c010f8d58fefa923210124f7b3d0e64736f6c63430008090033",
  "immutableReferences": {},
  "source": "pragma solidity 0.8.9;\r\n\r\n\r\ncontract NetShop{\r\n    struct Owner{\r\n        address owner;\r\n        uint256 getPrice;\r\n        uint gettime; \r\n    }\r\n    struct Net {\r\n        // id\r\n        uint id;\r\n        // \r\n        string name;\r\n        // URL\r\n        string imgurl;\r\n        address owner;\r\n        // \r\n        bool onsale;\r\n        // \r\n        uint startprice;\r\n        // \r\n        address bidderhistory;\r\n        uint256 bidpricehistory;\r\n        // \r\n        uint endtime;\r\n        \r\n    }\r\n    // Net\r\n    Net[] public nets;\r\n    Net[] public result;\r\n    Owner[] public temp;\r\n    address public gameOwner;\r\n    mapping(uint => Owner[])ownerhistory;\r\n    constructor()public {\r\n        gameOwner = msg.sender;\r\n    }\r\n    // Net\r\n    function createNewCharacter(string memory _name,string memory _imgurl) payable public {\r\n        require(msg.value == 0.1 ether);\r\n        uint id = nets.length;\r\n        delete temp;\r\n        temp.push(Owner(msg.sender,0,block.timestamp));\r\n        ownerhistory[id] = temp;\r\n        uint temp2 = 0;\r\n        address temp3;\r\n        nets.push(Net({id:id,name:_name,imgurl:_imgurl,owner:msg.sender,onsale:false,startprice:0,bidderhistory:temp3,bidpricehistory:temp2,endtime:block.timestamp}));\r\n    }\r\n        function getAllCharacter() public returns(Net[] memory)\r\n    {\r\n        delete result;\r\n        for(uint i=0;i<nets.length;i++)\r\n        {\r\n            result.push(nets[i]);\r\n        }\r\n        return result;\r\n    }\r\n       function getCharacter(address _sender) public returns(Net[] memory){\r\n        delete result;\r\n        for (uint i = 0; i < nets.length; i++) {\r\n            if(nets[i].owner==_sender){\r\n                result.push(nets[i]);\r\n            }\r\n        }\r\n        return result;\r\n    }\r\n    // Net\r\n    function getAuction() public returns(Net[] memory){\r\n        delete result;\r\n        for (uint256 i = 0; i < nets.length; i++) {\r\n            if(nets[i].onsale==true){\r\n                result.push(nets[i]);\r\n            }\r\n        }\r\n        return result;\r\n    }\r\n    // Net\r\n    function getMyAuction(address Owner) public returns(Net[] memory){\r\n        delete result;\r\n        for (uint256 i = 0; i < nets.length; i++) {\r\n            if(nets[i].onsale==true&&Owner==nets[i].owner){\r\n                result.push(nets[i]);\r\n            }\r\n        }\r\n        return result;\r\n    }\r\n    // Netonsale\r\n    function createNewAuction(uint _id,uint _sec,uint256 _startprice) payable public{\r\n        require(msg.value == 0.1 ether);\r\n        // uint money=1*10/100;\r\n        // payable(gameOwner).transfer(10/100);\r\n        require(msg.sender==nets[_id].owner);\r\n        require(nets[_id].onsale==false);\r\n        nets[_id].onsale=true;\r\n        nets[_id].endtime=block.timestamp+_sec;\r\n        nets[_id].startprice=_startprice;\r\n        nets[_id].bidderhistory = msg.sender;\r\n        nets[_id].bidpricehistory = _startprice;\r\n    }\r\n    function bid(uint256 _id)payable public{\r\n        require(msg.sender !=nets[_id].owner);\r\n        require(block.timestamp<=nets[_id].endtime);\r\n        require(nets[_id].onsale=true);\r\n        require(nets[_id].bidpricehistory<=msg.value);\r\n            payable(nets[_id].bidderhistory).transfer(nets[_id].bidpricehistory);\r\n            nets[_id].bidderhistory = msg.sender;\r\n            nets[_id].bidpricehistory = msg.value;\r\n    }\r\n    // Owner\r\n    function getOwner_history(uint256 _id)public view returns(Owner[] memory){\r\n        return ownerhistory[_id];\r\n    }\r\n    function change_Owner (uint256 _id) public\r\n    {\r\n        require(msg.sender == nets[_id].bidderhistory);\r\n        require(block.timestamp >= nets[_id].endtime);\r\n        payable(nets[_id].owner).transfer(nets[_id].bidpricehistory);\r\n        ownerhistory[_id].push(Owner(msg.sender,nets[_id].bidpricehistory,nets[_id].endtime));\r\n        nets[_id].onsale = false;\r\n        nets[_id].owner = msg.sender;\r\n        nets[_id].startprice = 0;\r\n        nets[_id].bidderhistory = address(0);\r\n        nets[_id].bidpricehistory = 0;\r\n    }\r\n    // \r\n}",
  "sourcePath": "F:\\Test\\Final\\-_DAPP\\src\\build\\contracts\\NetShop.sol",
  "compiler": {
    "name": "solc",
    "version": "0.8.9+commit.e5eed63a.Emscripten.clang"
  },
  "schemaVersion": "3.4.3",
  "updatedAt": "2021-11-03T07:02:01.840Z",
  "networkType": "ethereum",
  "devdoc": {
    "kind": "dev",
    "methods": {},
    "version": 1
  },
  "userdoc": {
    "kind": "user",
    "methods": {},
    "version": 1
  }
}